{
  "contractName": "SimpleStorage",
  "abi": [
    {
      "inputs": [],
      "stateMutability": "nonpayable",
      "type": "constructor"
    },
    {
      "inputs": [],
      "name": "balance",
      "outputs": [
        {
          "internalType": "uint256",
          "name": "",
          "type": "uint256"
        }
      ],
      "stateMutability": "view",
      "type": "function",
      "constant": true
    },
    {
      "inputs": [
        {
          "internalType": "uint256",
          "name": "",
          "type": "uint256"
        }
      ],
      "name": "campaigns",
      "outputs": [
        {
          "internalType": "string",
          "name": "title",
          "type": "string"
        },
        {
          "internalType": "string",
          "name": "description",
          "type": "string"
        }
      ],
      "stateMutability": "view",
      "type": "function",
      "constant": true
    },
    {
      "inputs": [],
      "name": "owner",
      "outputs": [
        {
          "internalType": "address payable",
          "name": "",
          "type": "address"
        }
      ],
      "stateMutability": "view",
      "type": "function",
      "constant": true
    },
    {
      "inputs": [],
      "name": "read",
      "outputs": [
        {
          "internalType": "uint256",
          "name": "",
          "type": "uint256"
        }
      ],
      "stateMutability": "view",
      "type": "function",
      "constant": true
    },
    {
      "inputs": [
        {
          "internalType": "uint256",
          "name": "newValue",
          "type": "uint256"
        }
      ],
      "name": "write",
      "outputs": [],
      "stateMutability": "nonpayable",
      "type": "function"
    },
    {
      "inputs": [],
      "name": "Found",
      "outputs": [],
      "stateMutability": "payable",
      "type": "function",
      "payable": true
    },
    {
      "inputs": [],
      "name": "PayVendor",
      "outputs": [],
      "stateMutability": "nonpayable",
      "type": "function"
    },
    {
      "inputs": [
        {
          "internalType": "string",
          "name": "_title",
          "type": "string"
        },
        {
          "internalType": "string",
          "name": "_description",
          "type": "string"
        }
      ],
      "name": "addCampaign",
      "outputs": [],
      "stateMutability": "nonpayable",
      "type": "function"
    }
  ],
  "bytecode": "0x608060405234801561001057600080fd5b5033600360006101000a81548173ffffffffffffffffffffffffffffffffffffffff021916908373ffffffffffffffffffffffffffffffffffffffff160217905550610c21806100616000396000f3fe60806040526004361061007b5760003560e01c80638da5cb5b1161004e5780638da5cb5b1461011c57806399032dcd14610147578063b69ef8a81461015e578063d9859996146101895761007b565b8063141961bc146100805780632f048afa146100be57806357de26a4146100e757806363281b1d14610112575b600080fd5b34801561008c57600080fd5b506100a760048036038101906100a29190610517565b6101b2565b6040516100b59291906105d4565b60405180910390f35b3480156100ca57600080fd5b506100e560048036038101906100e09190610517565b6102f6565b005b3480156100f357600080fd5b506100fc610300565b604051610109919061061a565b60405180910390f35b61011a610309565b005b34801561012857600080fd5b50610131610324565b60405161013e9190610676565b60405180910390f35b34801561015357600080fd5b5061015c61034a565b005b34801561016a57600080fd5b5061017361044f565b604051610180919061061a565b60405180910390f35b34801561019557600080fd5b506101b060048036038101906101ab91906107c6565b610455565b005b600181815481106101c257600080fd5b90600052602060002090600202016000915090508060000180546101e59061086d565b80601f01602080910402602001604051908101604052809291908181526020018280546102119061086d565b801561025e5780601f106102335761010080835404028352916020019161025e565b820191906000526020600020905b81548152906001019060200180831161024157829003601f168201915b5050505050908060010180546102739061086d565b80601f016020809104026020016040519081016040528092919081815260200182805461029f9061086d565b80156102ec5780601f106102c1576101008083540402835291602001916102ec565b820191906000526020600020905b8154815290600101906020018083116102cf57829003601f168201915b5050505050905082565b8060008190555050565b60008054905090565b346002600082825461031b91906108cd565b92505081905550565b600360009054906101000a900473ffffffffffffffffffffffffffffffffffffffff1681565b600360009054906101000a900473ffffffffffffffffffffffffffffffffffffffff1673ffffffffffffffffffffffffffffffffffffffff163373ffffffffffffffffffffffffffffffffffffffff16146103da576040517f08c379a00000000000000000000000000000000000000000000000000000000081526004016103d19061094d565b60405180910390fd5b600360009054906101000a900473ffffffffffffffffffffffffffffffffffffffff1673ffffffffffffffffffffffffffffffffffffffff166108fc6002549081150290604051600060405180830381858888f19350505050158015610444573d6000803e3d6000fd5b506000600281905550565b60025481565b60006040518060400160405280848152602001838152509050600181908060018154018082558091505060019003906000526020600020906002020160009091909190915060008201518160000190816104af9190610b19565b5060208201518160010190816104c59190610b19565b505050505050565b6000604051905090565b600080fd5b600080fd5b6000819050919050565b6104f4816104e1565b81146104ff57600080fd5b50565b600081359050610511816104eb565b92915050565b60006020828403121561052d5761052c6104d7565b5b600061053b84828501610502565b91505092915050565b600081519050919050565b600082825260208201905092915050565b60005b8381101561057e578082015181840152602081019050610563565b60008484015250505050565b6000601f19601f8301169050919050565b60006105a682610544565b6105b0818561054f565b93506105c0818560208601610560565b6105c98161058a565b840191505092915050565b600060408201905081810360008301526105ee818561059b565b90508181036020830152610602818461059b565b90509392505050565b610614816104e1565b82525050565b600060208201905061062f600083018461060b565b92915050565b600073ffffffffffffffffffffffffffffffffffffffff82169050919050565b600061066082610635565b9050919050565b61067081610655565b82525050565b600060208201905061068b6000830184610667565b92915050565b600080fd5b600080fd5b7f4e487b7100000000000000000000000000000000000000000000000000000000600052604160045260246000fd5b6106d38261058a565b810181811067ffffffffffffffff821117156106f2576106f161069b565b5b80604052505050565b60006107056104cd565b905061071182826106ca565b919050565b600067ffffffffffffffff8211156107315761073061069b565b5b61073a8261058a565b9050602081019050919050565b82818337600083830152505050565b600061076961076484610716565b6106fb565b90508281526020810184848401111561078557610784610696565b5b610790848285610747565b509392505050565b600082601f8301126107ad576107ac610691565b5b81356107bd848260208601610756565b91505092915050565b600080604083850312156107dd576107dc6104d7565b5b600083013567ffffffffffffffff8111156107fb576107fa6104dc565b5b61080785828601610798565b925050602083013567ffffffffffffffff811115610828576108276104dc565b5b61083485828601610798565b9150509250929050565b7f4e487b7100000000000000000000000000000000000000000000000000000000600052602260045260246000fd5b6000600282049050600182168061088557607f821691505b6020821081036108985761089761083e565b5b50919050565b7f4e487b7100000000000000000000000000000000000000000000000000000000600052601160045260246000fd5b60006108d8826104e1565b91506108e3836104e1565b92508282019050808211156108fb576108fa61089e565b5b92915050565b7f4f6e6c79206f776e65722063616e2077697468647261772066756e6473000000600082015250565b6000610937601d8361054f565b915061094282610901565b602082019050919050565b600060208201905081810360008301526109668161092a565b9050919050565b60008190508160005260206000209050919050565b60006020601f8301049050919050565b600082821b905092915050565b6000600883026109cf7fffffffffffffffffffffffffffffffffffffffffffffffffffffffffffffffff82610992565b6109d98683610992565b95508019841693508086168417925050509392505050565b6000819050919050565b6000610a16610a11610a0c846104e1565b6109f1565b6104e1565b9050919050565b6000819050919050565b610a30836109fb565b610a44610a3c82610a1d565b84845461099f565b825550505050565b600090565b610a59610a4c565b610a64818484610a27565b505050565b5b81811015610a8857610a7d600082610a51565b600181019050610a6a565b5050565b601f821115610acd57610a9e8161096d565b610aa784610982565b81016020851015610ab6578190505b610aca610ac285610982565b830182610a69565b50505b505050565b600082821c905092915050565b6000610af060001984600802610ad2565b1980831691505092915050565b6000610b098383610adf565b9150826002028217905092915050565b610b2282610544565b67ffffffffffffffff811115610b3b57610b3a61069b565b5b610b45825461086d565b610b50828285610a8c565b600060209050601f831160018114610b835760008415610b71578287015190505b610b7b8582610afd565b865550610be3565b601f198416610b918661096d565b60005b82811015610bb957848901518255600182019150602085019450602081019050610b94565b86831015610bd65784890151610bd2601f891682610adf565b8355505b6001600288020188555050505b50505050505056fea2646970667358221220fcb066dd53d91a715b20253ea084d74e1b5e2aab3fa2594a5faac4ef1a28315164736f6c63430008120033",
  "immutableReferences": {},
  "source": "// SPDX-License-Identifier: MIT\r\npragma solidity >=0.4.22 <0.9.0;\r\n\r\ncontract SimpleStorage {\r\n  \r\n  uint256 value;\r\n  \r\n  struct Campaign {\r\n    string title;\r\n    string description;\r\n  }\r\n  \r\n  // Function to withdraw all collected funds to the owner (only accessible by owner)\r\n  modifier onlyOwner() {\r\n    require(msg.sender == owner, \"Only owner can withdraw funds\");\r\n    _;\r\n  }\r\n  \r\n  Campaign[] public campaigns;\r\n\r\n    // State variable to store the total amount collected\r\n  uint public balance;\r\n\r\n  // Address of the contract creator (owner)\r\n  address payable public owner;\r\n\r\n\r\n\r\n  // Constructor to store the owner address\r\n  constructor() {\r\n    owner = payable(msg.sender);\r\n  }\r\n\r\n\r\n\r\n  function read() public view returns (uint256) {\r\n    return value;\r\n  }\r\n\r\n  function write(uint256 newValue) public {\r\n    value = newValue;\r\n  }\r\n\r\n  // Function to collect funds to the contract\r\n  function Found() public payable {\r\n    balance += msg.value;\r\n  }\r\n\r\n\r\n  function PayVendor() public onlyOwner {\r\n    // Transfer the entire balance to the owner\r\n    owner.transfer(balance);\r\n    balance = 0;\r\n  }\r\n\r\n  // Function to add a new campaign\r\n  function addCampaign(string memory _title, string memory _description) public {\r\n    Campaign memory newCampaign = Campaign(_title, _description);\r\n    campaigns.push(newCampaign);\r\n  }\r\n}",
  "sourcePath": "C:\\projects\\workshop\\dappsworkshop\\trufflereactbox\\truffle\\contracts\\SimpleStorage.sol",
  "compiler": {
    "name": "solc",
    "version": "0.8.18+commit.87f61d96.Emscripten.clang"
  },
  "schemaVersion": "3.4.16",
  "updatedAt": "2024-04-08T05:31:42.972Z",
  "networkType": "ethereum",
  "devdoc": {
    "kind": "dev",
    "methods": {},
    "version": 1
  },
  "userdoc": {
    "kind": "user",
    "methods": {},
    "version": 1
  }
}