{
  "contractName": "SimpleStorage",
  "abi": [
    {
      "inputs": [],
      "stateMutability": "nonpayable",
      "type": "constructor"
    },
    {
      "inputs": [],
      "name": "balance",
      "outputs": [
        {
          "internalType": "uint256",
          "name": "",
          "type": "uint256"
        }
      ],
      "stateMutability": "view",
      "type": "function",
      "constant": true
    },
    {
      "inputs": [],
      "name": "owner",
      "outputs": [
        {
          "internalType": "address payable",
          "name": "",
          "type": "address"
        }
      ],
      "stateMutability": "view",
      "type": "function",
      "constant": true
    },
    {
      "inputs": [],
      "name": "read",
      "outputs": [
        {
          "internalType": "uint256",
          "name": "",
          "type": "uint256"
        }
      ],
      "stateMutability": "view",
      "type": "function",
      "constant": true
    },
    {
      "inputs": [
        {
          "internalType": "uint256",
          "name": "newValue",
          "type": "uint256"
        }
      ],
      "name": "write",
      "outputs": [],
      "stateMutability": "nonpayable",
      "type": "function"
    },
    {
      "inputs": [],
      "name": "Found",
      "outputs": [],
      "stateMutability": "payable",
      "type": "function",
      "payable": true
    },
    {
      "inputs": [],
      "name": "PayVendor",
      "outputs": [],
      "stateMutability": "nonpayable",
      "type": "function"
    }
  ],
  "bytecode": "0x608060405234801561001057600080fd5b5033600260006101000a81548173ffffffffffffffffffffffffffffffffffffffff021916908373ffffffffffffffffffffffffffffffffffffffff160217905550610488806100616000396000f3fe6080604052600436106100555760003560e01c80632f048afa1461005a57806357de26a41461008357806363281b1d146100ae5780638da5cb5b146100b857806399032dcd146100e3578063b69ef8a8146100fa575b600080fd5b34801561006657600080fd5b50610081600480360381019061007c91906102bf565b610125565b005b34801561008f57600080fd5b5061009861012f565b6040516100a591906102fb565b60405180910390f35b6100b6610138565b005b3480156100c457600080fd5b506100cd610153565b6040516100da9190610357565b60405180910390f35b3480156100ef57600080fd5b506100f8610179565b005b34801561010657600080fd5b5061010f61027e565b60405161011c91906102fb565b60405180910390f35b8060008190555050565b60008054905090565b346001600082825461014a91906103a1565b92505081905550565b600260009054906101000a900473ffffffffffffffffffffffffffffffffffffffff1681565b600260009054906101000a900473ffffffffffffffffffffffffffffffffffffffff1673ffffffffffffffffffffffffffffffffffffffff163373ffffffffffffffffffffffffffffffffffffffff1614610209576040517f08c379a000000000000000000000000000000000000000000000000000000000815260040161020090610432565b60405180910390fd5b600260009054906101000a900473ffffffffffffffffffffffffffffffffffffffff1673ffffffffffffffffffffffffffffffffffffffff166108fc6001549081150290604051600060405180830381858888f19350505050158015610273573d6000803e3d6000fd5b506000600181905550565b60015481565b600080fd5b6000819050919050565b61029c81610289565b81146102a757600080fd5b50565b6000813590506102b981610293565b92915050565b6000602082840312156102d5576102d4610284565b5b60006102e3848285016102aa565b91505092915050565b6102f581610289565b82525050565b600060208201905061031060008301846102ec565b92915050565b600073ffffffffffffffffffffffffffffffffffffffff82169050919050565b600061034182610316565b9050919050565b61035181610336565b82525050565b600060208201905061036c6000830184610348565b92915050565b7f4e487b7100000000000000000000000000000000000000000000000000000000600052601160045260246000fd5b60006103ac82610289565b91506103b783610289565b92508282019050808211156103cf576103ce610372565b5b92915050565b600082825260208201905092915050565b7f4f6e6c79206f776e65722063616e2077697468647261772066756e6473000000600082015250565b600061041c601d836103d5565b9150610427826103e6565b602082019050919050565b6000602082019050818103600083015261044b8161040f565b905091905056fea2646970667358221220c6a6c0f2607a06cc020a7f2d8bebc0e04afb96ea945c1f6dd5825e1f9574094d64736f6c63430008120033",
  "immutableReferences": {},
  "source": "// SPDX-License-Identifier: MIT\r\npragma solidity >=0.4.22 <0.9.0;\r\n\r\ncontract SimpleStorage {\r\n  uint256 value;\r\n\r\n  function read() public view returns (uint256) {\r\n    return value;\r\n  }\r\n\r\n  function write(uint256 newValue) public {\r\n    value = newValue;\r\n  }\r\n\r\n    // State variable to store the total amount collected\r\n  uint public balance;\r\n\r\n  // Address of the contract creator (owner)\r\n  address payable public owner;\r\n\r\n  // Constructor to store the owner address\r\n  constructor() {\r\n    owner = payable(msg.sender);\r\n  }\r\n\r\n  // Function to collect funds to the contract\r\n  function Found() public payable {\r\n    balance += msg.value;\r\n  }\r\n\r\n  // Function to withdraw all collected funds to the owner (only accessible by owner)\r\n  modifier onlyOwner() {\r\n    require(msg.sender == owner, \"Only owner can withdraw funds\");\r\n    _;\r\n  }\r\n\r\n  function PayVendor() public onlyOwner {\r\n    // Transfer the entire balance to the owner\r\n    owner.transfer(balance);\r\n    balance = 0;\r\n  }\r\n}",
  "sourcePath": "C:\\projects\\workshop\\dappsworkshop\\trufflereactbox\\truffle\\contracts\\SimpleStorage.sol",
  "compiler": {
    "name": "solc",
    "version": "0.8.18+commit.87f61d96.Emscripten.clang"
  },
  "schemaVersion": "3.4.16",
  "updatedAt": "2024-04-08T04:23:47.470Z",
  "networkType": "ethereum",
  "devdoc": {
    "kind": "dev",
    "methods": {},
    "version": 1
  },
  "userdoc": {
    "kind": "user",
    "methods": {},
    "version": 1
  }
}